:100000000C94F9050C9440060C9440060C944006A0
:100010000C9440060C9440060C9440060C94400648
:100020000C9440060C9440060C9444280C94162919
:100030000C94701A0C9440060C9440060C944006E4
:100040000C9440060C9440060C9440060C94400618
:100050000C9440060C94E41A0C9440060C94400650
:100060000C9440060C9440060C9440060C944006F8
:100070000C9440060C9440060C9440060C944006E8
:100080000C9440060C9440060C9440060C944006D8
:100090000C9440060C9440060C9440060C944006C8
:1000A0000C9440060C9440060C944006A307A50748
:1000B000B007A707A907AB07AD07AF07B207B4079B
:1000C000B607C107B807BA07BC07BE07C007C30712
:1000D0004410441076107610B410D2102E122E1246
:1000E00014112E12AD11AD111E122E122E12271246
:1000F000BA11BA11BA11BA11BA11BA11BA11BA11A8
:10010000BA11BA11BA11BA11BA11BA11BA11BA1197
:10011000CB11D911E011E711F111BF12BF12D112A9
:10012000D112C812D112D112D112BF12BF12CD12E8
:10013000D112D112CD128329AA29A22AAA29A22A30
:10014000F629192AA22A702A7F2A08032B022B00DB
:100150002700E10050014F011D0144454255473A37
:100160002064697361626C65642E0A0044454255DF
:10017000473A20656E61626C65642E0A000A0025AC
:10018000303862003A200025303258000A722F635E
:100190002030313233343536370A000A0025303208
:1001A0005820006B6579626F6172645F7265706F71
:1001B00072743A20000A0025303258006B6579626B
:1001C0006F6172645F7365745F6C65643A200029C7
:1001D0000A002575002F002575005D2800256400A4
:1001E0002000256400200025640020002564007C98
:1001F0000025303258006D6F7573656B6579205B33
:1002000062746E7C782079207620685D2872657033
:100210002F61636C293A205B006D6B5F77686565C1
:100220006C5F74696D655F746F5F6D6178203D20F0
:1002300025640A006D6B5F776865656C5F6D61783A
:100240005F7370656564203D2025640A006D6B5FF7
:1002500074696D655F746F5F6D6178203D20256402
:100260000A006D6B5F6D61785F7370656564203D3A
:100270002025640A006D6B5F696E74657276616C2F
:10028000203D2025640A006D6B5F64656C617920F8
:100290003D2025640A006D6B5F776865656C5F744F
:1002A000696D655F746F5F6D6178203D2025640A1C
:1002B000006D6B5F776865656C5F6D61785F73700B
:1002C000656564203D2025640A006D6B5F74696D6F
:1002D000655F746F5F6D6178203D2025640A006D55
:1002E0006B5F6D61785F7370656564203D20256488
:1002F0000A006D6B5F696E74657276616C203D20DB
:1003000025640A006D6B5F64656C6179203D202572
:10031000640A000A00257500363A20776865656C26
:100320005F74696D655F746F5F6D61783A20000A74
:1003300000257500353A20776865656C5F6D6178DA
:100340005F73706565643A20000A00257500343AD1
:100350002074696D655F746F5F6D61783A20000A83
:1003600000257500333A206D61785F7370656564B0
:100370003A20000A00257500323A20696E746572D1
:1003800076616C286D73293A20000A0025750031CA
:100390003A2064656C6179282A31306D73293A20DE
:1003A000000A092D2056616C756573202D0A004DD9
:1003B0003E004D25643E20003F0073657420646557
:1003C0006661756C740A00433E200077686572654B
:1003D0002064656C74613A20637572736F723D2599
:1003E000642C20776865656C3D25640A536565203B
:1003F000687474703A2F2F656E2E77696B6970651B
:100400006469612E6F72672F77696B692F4D6F7505
:1004100073655F6B6579730A000A092D204D6F754E
:1004200073656B6579202D0A4553432F713A097125
:100430007569740A313A0964656C6179282A31302A
:100440006D73290A323A09696E74657276616C2897
:100450006D73290A333A096D61785F73706565645D
:100460000A343A0974696D655F746F5F6D61780A6B
:10047000353A09776865656C5F6D61785F737065A3
:1004800065640A363A09776865656C5F74696D65FD
:100490005F746F5F6D61780A0A703A097072696EF5
:1004A000742076616C7565730A643A09736574200B
:1004B00064656661756C74730A75703A092B310A4C
:1004C000646F776E3A092D310A706775703A092B9F
:1004D00031300A7067646F776E3A092D31300A0A3D
:1004E0007370656564203D2064656C7461202A200A
:1004F0006D61785F7370656564202A20287265706D
:10050000656174202F2074696D655F746F5F6D6124
:1005100078290A003F004D3E2000433E20004C2534
:10052000640A0074696D65725F72656164333228B4
:10053000293A202530346C580A006B6579626F6166
:1005400072645F69646C653A2025580A006B6579AE
:10055000626F6172645F70726F746F636F6C3A2068
:1005600025580A00686F73745F6B6579626F6172FA
:10057000645F6C65647328293A2025580A000A09CB
:100580002D20537461747573202D0A004743433A3C
:1005900020352E342E30204156522D4C4942433ABC
:1005A00020322E302E30204156525F415243483A7D
:1005B00020617672350A004F5054494F4E533A200D
:1005C0004C554641204D4F5553454B4559204558B4
:1005D0005452414B455920434F4E534F4C452043B5
:1005E0004F4D4D414E4420343039360A0042554972
:1005F0004C443A2022323032302D30312D31302DE2
:1006000031323A35313A323222202831323A3531DC
:100610003A3430204A616E20313020323032302975
:100620000A005649443A20307846454544285065EA
:1006300072616E656B6F466163746F7279292050C9
:1006400049443A2030783030303028746F6E652954
:10065000205645523A203078303030310A00444537
:1006600053433A204120637573746F6D206B657935
:10067000626F6172640A000A092D205665727369FF
:100680006F6E202D0A000A092D20436F6E736F6C68
:1006900065202D0A4553432F713A09717569740A13
:1006A0006D3A096D6F7573656B65790A000A092DDE
:1006B000204D61676963202D0A443A0944656275DB
:1006C00067204D65737361676520546F67676C655C
:1006D0000A583A094D6174726978204465627567F9
:1006E000204D6F646520546F67676C65202D205323
:1006F000686F77206B6579707265737365732069B5
:100700006E206D617472697820677269640A4B3A71
:10071000094B6579626F6172642044656275672078
:10072000546F67676C65202D2053686F77206B6569
:10073000797072657373207265706F72740A4D3AC6
:10074000094465627567204D6F75736520546F6746
:10075000676C650A563A0956657273696F6E0A537B
:100760003A095374617475730A433A0941637469B1
:100770007661746520436F6E736F6C65204D6F6496
:10078000650A46312D4631303A09537769746368FA
:1007900020746F204C6179657220302D39202846F5
:1007A0003130203D204C30290A302D393A09537719
:1007B0006974636820746F204C6179657220302DF4
:1007C000390A47524156453A09537769746368209C
:1007D000746F204C6179657220302028616C7465DB
:1007E000726E617465290A423A094A756D70207407
:1007F0006F20426F6F746C6F616465720A4553437A
:100800003A094A756D7020746F20426F6F746C6F77
:10081000616465722028616C7465726E617465290B
:100820000A453A095072696E7420454550524F4D41
:100830002053657474696E67730A4253504143458F
:100840003A09436C65617220454550524F4D0A008C
:100850000A002575002E6E6B726F3A20000A002583
:1008600075002E737761705F6261636B736C617387
:10087000685F6261636B73706163653A20000A00B0
:100880002575002E737761705F67726176655F65AD
:1008900073633A20000A002575002E6E6F5F67753E
:1008A000693A20000A002575002E737761705F7227
:1008B000616C745F726775693A20000A00257500E3
:1008C0002E737761705F6C616C745F6C6775693AE9
:1008D00020000A002575002E636170736C6F636BD6
:1008E0005F746F5F636F6E74726F6C3A20000A0002
:1008F0002575002E737761705F636F6E74726F6C15
:100900005F636170736C6F636B3A20000A0025307F
:100910003258006B65796D61705F636F6E666967F1
:100920002E7261773A20000A002575002E6D6F75D2
:1009300073653A20000A002575002E6B6579626F99
:100940006172643A20000A002575002E6D61747290
:1009500069783A20000A002575002E656E61626C88
:10096000653A20000A0025303258006465627567D8
:100970005F636F6E6669672E7261773A20000A00C6
:1009800025750064656661756C745F6C617965726C
:100990003A20003F000A6D6F7573653A206F6666F6
:1009A0000A000A6D6F7573653A206F6E0A000A6B54
:1009B0006579626F6172643A206F66660A000A6B3D
:1009C0006579626F6172643A206F6E0A000A6D6128
:1009D000747269783A206F66660A000A6D617472F3
:1009E00069783A206F6E0A000A64656275673A207A
:1009F0006F66660A000A64656275673A206F6E0A60
:100A0000000A0A4A756D70696E6720746F20626F04
:100A10006F746C6F616465722E2E2E2000433E2031
:100A200000436C656172696E6720454550524F4DB9
:100A30000A006565636F6E6669673A0A005B735DFD
:100A4000004B6579626F6172642073746172742EF9
:100A50000A005B575D005B535D005B525D005B44C9
:100A60005D005B435D000403300000000A03740076
:100A70006F006E00650000002003500065007200EA
:100A800061006E0065006B006F004600610063004E
:100A900074006F0072007900000004030904090269
:100AA0005B00030100A0FA0904000001030101003A
:100AB0000921110100012240000705810308000AF5
:100AC00009040100010300000009211101000122B5
:100AD00085000705820320000A09040200020300C2
:100AE00000000921110100012222000705830320D3
:100AF000000107050303200001120110010000009E
:100B000008EDFE00000100010203010631FF097437
:100B1000A1010975150026FF0095207508810209BD
:100B200076150026FF00952075089102C005010981
:100B300002A10185020901A1000509190129051574
:100B40000025019505750181029501750381010557
:100B500001093009311581257F9502750881060943
:100B6000381581257F950175088106050C0A380224
:100B70001581257F950175088106C0C00501098092
:100B8000A10185031601002603001A81002A8300B3
:100B9000751095018100C0050C0901A1018504169D
:100BA0000100269C021A01002A9C02751095018101
:100BB00000C005010906A101050719E029E7150094
:100BC00025019508750181029501750881010508C7
:100BD000190129059505750191029501750391018A
:100BE0000507190029FF150026FF009506750881E5
:100BF00000C011241FBECFEFDAE0DEBFCDBF04B6C8
:100C000003FE27C08091DD019091DE01A091DF01FC
:100C1000B091E0018730904BA740B04BD1F41092D7
:100C2000DD011092DE011092DF011092E00114BE8E
:100C300084B7877F84BF0FB6F894A8958091600031
:100C4000886180936000109260000FBEE0E0F8E3DE
:100C5000099511E0A0E0B1E0E6EAF6E502C00590F2
:100C60000D92A434B107D9F721E0A4E4B1E001C0AA
:100C70001D92AD3DB207E1F70E9465250C94512B02
:100C80000C940000FF93EF93E0914401F091450133
:100C9000309709F00995EF91FF910895FC01859136
:100CA000803011F0EFDFFBCF0895FF27E0E230E264
:100CB00047FF0CC0419597FF09C0EDE26095709524
:100CC00080959095611D711D811D911D27FF02C0AA
:100CD000219530E350E2AA27660F771F881F991FDE
:100CE000AA1FA41710F0A41B63955A95A9F7AA3060
:100CF00008F0A95FA05DAF93F395611571058105BB
:100D0000910541F7ED3211F4EF93F395F21718F4D2
:100D10003F93F395FBCF8F91B5DFFA95E1F70895F7
:100D2000E991F9918591803021F0853219F0AADF9F
:100D3000F9CF089520E0E89455915532C1F350332E
:100D400011F4689455915A3348F4505390F3220F9C
:100D5000022E220F220F200D250FF4CF0EF4219525
:100D600089919991533619F3533729F1533559F134
:100D7000BC0188279927E8945C3621F489919991E0
:100D800068945591543639F446EF7EF077FF0DC0E4
:100D90008FEF9FEF0AC055374AE039F0583540E1F0
:100DA00021F0523642E009F00895FF93EF937DDF82
:100DB000EF91FF91B7CFFF93EF93FC0181918030CA
:100DC000B9F360DFFBCFFF93EF9368DFF1CFDF93E1
:100DD000CF93CDB7DEB72596A3DFCF91DF910895EE
:100DE000662311F082E501C081E50C94E60F81E0F5
:100DF000089581E008950C94F9061F93CF93DF9333
:100E000000D000D01F92CDB7DEB749835A836B83E1
:100E10002091590189819A81211112C0662349F0DC
:100E20000E940F18182F682F89819A810E94B81785
:100E300003C00E94E317182F69817A81812F04C0B3
:100E40000E940F1869817A810F900F900F900F9078
:100E50000F90DF91CF911F910C945408FC014081B9
:100E600051816281738184810C94FD060E9458191E
:100E7000811102C00E94DE190E94B00B0C94CC0AB2
:100E80000E94C10B0C94CE0A08950C9444070C9454
:100E9000450708950E94AD120E9449072FEF84E391
:100EA0009CE0215080409040E1F700C000000C948D
:100EB0000A1B0F931F93CF93DF938C010E942E0781
:100EC000EC01B8010E94FB068823C9F0B801CE01ED
:100ED0000E94720C882399F0C531FCE5DF0708F009
:100EE00086C0C2308CE5D80760F4C115ECE5DE079A
:100EF00009F059C0F801828181110E944A07C0E0BF
:100F0000C9C0F8018281882309F450C00E94581991
:100F1000811102C00E94DE190E946B1990E090932B
:100F2000CF018093CE01FE01E350FC45E231F10593
:100F300030F4EA5AFF4F8091CE010C94F52A80914B
:100F4000CE01816027C0826025C0846023C080619B
:100F500021C080621FC080641DC080681BC0846087
:100F6000886018C08E7F16C08D7F14C08B7F12C022
:100F70008F7E10C08F7D0EC08F7B0CC08F770AC014
:100F80008B7F877F07C087FB222720F991E092277C
:100F900090FB87F98093CE018091CE010E946F195A
:100FA0000E94AD12ACCFC130DC4539F0C801DF91F1
:100FB000CF911F910F910C94F706F801828188233D
:100FC00009F49DCF8091AC01C82FC095C170C0FBC2
:100FD00080F98093AC01CC2329F08CE691E00E944B
:100FE0004E068DCF8AE591E00E944E0653C0CC3D5F
:100FF0008CE5D80739F4F8018281882309F47FCF82
:1010000080E00EC0CD3DECE5DE0768F0CD3D8CE51F
:10101000D807A1F5F8018281882309F470CF82E016
:101020000E940B266CCFC631DC4509F0BFCF0E9471
:101030009018982FF80182812091000130910101D0
:10104000882379F09A7A81E009F480E08093460160
:10105000911102C069E201C065E3C9010E94131A3F
:101060000AC080914601811102C069E201C065E3B6
:10107000C9010E94151A0E94DE1841CFCE3DDC4501
:1010800009F094CFF8018281882309F438CF0E94B7
:10109000DE1935CF8C2FDF91CF911F910F910895DD
:1010A00080E090E008950895E72FF0E0E80FF11D4B
:1010B00083E0EE0FFF1F8A95E1F7E60FF11DEE0FBB
:1010C000FF1FE65BFE4F859194910895880F991F4D
:1010D000FC01E358FE4F859194910895CF93DF93DF
:1010E0000E9454080E942A0AEC018115904508F0DC
:1010F00041C0C11580E4D80708F028C1C83ED10519
:1011000010F5C03ED10508F0A1C1C83AD10578F468
:10111000C53AD10508F0A2C0C130D10509F496C185
:1011200008F447C1C430D10508F090C142C1CF3B9B
:10113000D10508F49EC0C03CD10508F43AC1CE01E7
:10114000805C9109F5C0C11590E2D90758F4C1152A
:1011500021E0D20708F07AC1C03FD10508F429C1C7
:10116000D06574C1C11580E3D80708F0E5C0CE0191
:101170009F70DEC0C11595E5D90708F043C0C115C1
:1011800024E5D20708F0F9C0C11582E5D80708F5B3
:10119000C11591E5D90708F0DCC0CE0174E0969541
:1011A00087957A95E1F783709C2F937021E030E06A
:1011B00002C0220F331F9A95E2F73C68382BCF709C
:1011C000C695C69580E2C89FE0011124C22BD32B9F
:1011D0003DC19E01237033278C2F86958695C115BE
:1011E000D34508F0BBC0C1E0D0E002C0CC0FDD1F8A
:1011F0002A95E2F720E2829FC0011124C82BD92B47
:10120000DC6824C1C11529E5D207A0F4C11588E521
:10121000D80708F0B7C0C11596E5D90708F0C9C0CE
:101220008C2F0E94A60A8F71C82FD0E0DC2FCC270C
:10123000D0620CC1C1152AE5D20708F4A8C0CE01BE
:1012400090568115904208F0B4C08D2F8F710E9486
:10125000A60ADD27D0628F71D82BF8C0C53AD10518
:1012600009F4AAC0C63AD10509F0A9C0C2E8D0E481
:10127000EDC0C83AD10509F4A5C0C93AD10509F4B1
:10128000A4C0CA3AD10509F4A3C0CB3AD10509F4E8
:10129000A2C0CC3AD10509F4A1C0CB3BD10509F4D9
:1012A000A0C0CC3BD10509F49FC0CD3AD10509F4CB
:1012B0009EC0C03BD10509F49DC0CE3AD10509F4CA
:1012C0009CC0CF3AD10509F49BC0C13BD10509F4BC
:1012D0009AC0C23BD10509F499C0C33BD10509F4BA
:1012E00098C0C43BD10509F497C0C53BD10509F4AA
:1012F00096C0C63BD10509F495C0C73BD10509F49A
:1013000094C0C83BD10509F493C0C93BD10509F489
:1013100092C0CD3BD10509F491C0CE3BD10509F473
:1013200090C0CA3BD10509F48FC0C0E0D4E48EC0A0
:101330000E946608EC018AC0CE019927D3FF03C042
:10134000EC01D86C83C0EC01D06C80C0DF70D06A37
:101350007DC0DC2FCC27C16FD06A78C0C1E0D0E05F
:1013600002C0CC0FDD1F2A95E2F720E2829FC00168
:101370001124C82BD92BDA6869C0DC2FCC27C46FA5
:10138000D06A64C0DC2FCC27C06FD06A5FC08C2FBE
:101390008F700E94A60A94E0D695C7959A95E1F7BA
:1013A000CF70D0E0DC2FCC27D06A8F70806EC82B36
:1013B0004DC0C0E0D0E04AC0C1E8D0E447C0C3E8B7
:1013C000D0E444C0C2EED4E441C0C9EED4E43EC08F
:1013D000CAEED4E43BC0C5EBD4E438C0C6EBD4E4D9
:1013E00035C0C3EBD4E432C0C4EBD4E42FC0C7EBA8
:1013F000D4E42CC0CCECD4E429C0CDECD4E426C099
:10140000C3E8D5E423C0CAE8D5E420C0C2E9D5E4E6
:101410001DC0C4E9D5E41AC0C1E2D6E417C0C3E2D6
:10142000D6E414C0C4E2D6E411C0C5E2D6E40EC0CE
:10143000C6E2D6E40BC0C7E2D6E408C0CFE6D4E4E7
:1014400005C0C0E7D4E402C0CAE2D6E4CE01DF9111
:10145000CF9108958238910549F1B0F48133910517
:1014600009F459C048F48932910509F44FC08A3211
:10147000910509F455C008958533910509F441C0DB
:101480008933910599F00895833E910531F138F43F
:10149000803E910591F0823E9105A9F00895863E27
:1014A000910501F1873E910539F108952091CE0112
:1014B00020FD3BC021FD39C008958091CE0180FF01
:1014C00034C089E341C08091CE0182FF30C0809159
:1014D000CE0184FD2EC083EE37C08091CE0182FD07
:1014E00026C0F5CF8091CE0183FF25C08091CE012B
:1014F00084FD1FC087EE28C08091CE0183FD1BC0F4
:10150000F5CF8091CE0185FD18C019C08091CE0124
:1015100085FD15C012C08091CE0186FD12C013C09A
:101520008091CE0186FD0FC00CC080EE0DC082EE12
:101530000BC080E009C086EE07C089E205C085E3E4
:1015400003C08AE201C081E390E008959091CE014A
:1015500092FF0DC0282F2871283019F4877F8460EE
:1015600006C0282F2471243011F48B7F886093FFEC
:101570000DC0282F2871283119F4877E846106C098
:10158000282F2471243111F48B7E886194FD877E8D
:10159000089508950C94C90A0C94CA0A0C94C90AB7
:1015A000E82FF0E0E95BFE4F808108958CE891E040
:1015B0000E944E061F921F9287E891E09F938F939F
:1015C0000E94E70684E891E00E944E068091470160
:1015D0000E9446191F928F938FE791E09F938F93FC
:1015E0000E94E7068DB79EB708960FB6F8949EBF87
:1015F0000FBE8DBF8DE791E00C944E06CF93DF9325
:1016000080B380BB81B381BBA3E1B1E04BE151E08A
:1016100061E070E08D91E82FE295EF70F0E021A19C
:101620008F70EB0102C0CC0FDD1F8A95E2F7CE016F
:101630009C2F9095922391A392A1892B82A34A1764
:101640005B0741F7109248011092470181E00E9428
:10165000770BDF91CF910C943607CF9360914801BF
:101660001092480180B380BB81B381BB80EA8A9528
:10167000F1F7A3E1B1E040E050E0C1E09D91E92F36
:10168000E295EF70F0E020A17091480130E09F708A
:1016900002C0359527959A95E2F720FD08C09C2F4A
:1016A000042E01C0990F0A94EAF7892F01C080E047
:1016B000872B809348014F5F5F4F48305105F1F60B
:1016C00080B380BB81B381BBC1E0809148018613A8
:1016D00001C0C0E02C2F41E067E471E088E491E0B4
:1016E0000E94780B0E9440078C2FCF910895089597
:1016F000FF920F931F93CF93DF938C01F62ED72F7A
:10170000C42F222349F081E080934B010E94A21A4A
:1017100090934A018093490180914B018823C1F045
:101720008091490190914A010E94BA1A069780F06F
:10173000EF2DFD2FD8014C2F50E0CD01801B910BD8
:10174000841795071CF48D918193F7CF10924B016C
:10175000DF91CF911F910F91FF9008950C94F006A7
:1017600025982D9A24982C9A83B185FB882780F997
:101770001C9902C090E001C092E0892B80934D013A
:101780000895E0914D01EE0FEE0FE0934D0143B14E
:1017900045FB882780F990E043B144FB222720F9DC
:1017A00030E044FF02C022E030E0822B932B8E2BEE
:1017B00080934D018F70E82FF0E0E55EFE4F908141
:1017C00080914C01890F80934C01843024F060E0BB
:1017D00080E00E94AE0B80914C018D3F24F461E0CB
:1017E00080E00E94AE0B80914C01837887FF03C09C
:1017F00081508C6F8F5F80934C0108950F931F93DE
:10180000CF93DF93C62FD42F122FFC018281882320
:10181000C9F0609350010E94A21A90934F018093E7
:101820004E0180E28C0F883008F057C0C77081E00D
:1018300001C0880FCA95EAF7DF91CF911F910F91F0
:101840000C94011080915001681330C080914E01BA
:1018500090914F010E94BA1A883C910538F500E238
:101860000D0FCD17B9F080E28C0F883040F4C770AF
:1018700081E001C0880FCA95EAF70E94081008307D
:1018800028F581E09D2F977001C0880F9A95EAF79F
:101890000E940110812F0E94E60F0830F0F4D770EB
:1018A00081E001C0880FDA95EAF70AC080E28C0F68
:1018B000883098F4C77081E001C0880FCA95EAF7B4
:1018C000DF91CF911F910F910C940810812FDF9120
:1018D000CF911F910F910C94E60FDF91CF911F9143
:1018E0000F9108959C01CB01203F4CE53407F9F09E
:1018F00078F4283DFCE53F07B9F0293D4CE5340775
:1019000011F1273D3C4531F526E241EE61EE1EC066
:10191000223FFCE53F0799F070F0233F3C45D1F4AE
:1019200027E245EE66EE12C027E245EE0EC026E243
:1019300041EE60EE0BC027E245EE64EE07C026E202
:1019400041EE62EE03C028E241E065EE0E94FE0B2C
:1019500080E00895FC018281882319F010925001E3
:10196000089581E00895909356018093550108955C
:10197000E0915501F0915601309721F00190F081EE
:10198000E02D099480E00895EF92FF920F931F934A
:10199000CF93DF93E0915501F09156013097B1F16B
:1019A0008C010280F381E02D09958091AC0182FFCA
:1019B0002DC080FF04C083EA91E00E944E06E8013A
:1019C00018E08DE9E82E81E0F82E8091AC0180FFCF
:1019D0000BC088811F928F93FF92EF920E94E706BF
:1019E0000F900F900F900F90115021961111EDCF85
:1019F0008091AC0180FF0AC08BE991E0DF91CF912B
:101A00001F910F91FF90EF900C944E06DF91CF91B4
:101A10001F910F91FF90EF900895E0915501F09183
:101A20005601309739F022E0DC012C930480F581D7
:101A3000E02D099408952091530130915401281705
:101A4000390771F09093540180935301E09155014F
:101A5000F0915601309721F00680F781E02D09942E
:101A6000089520915101309152012817390771F0E2
:101A70009093520180935101E0915501F0915601EC
:101A8000309721F00084F185E02D0994089585B701
:101A9000806885BF85B7806885BF089508950C94D8
:101AA0004E0D0C944F0D0C944E0D0C944E0D0E9447
:101AB000470D0E94530D0C94510D81E008950E9432
:101AC000991A0E94FE0A0E942E1B0C94550DCF936A
:101AD000C82F8091AC0182FF1EC080FF04C08CEB38
:101AE00091E00E944E068091AC0180FF0CC01F92D5
:101AF000CF9387EB91E09F938F930E94E7060F901F
:101B00000F900F900F908091AC0180FF04C085EB87
:101B100091E00E944E068C2FCF910C944707EF92D4
:101B2000FF920F931F93CF93DF93CDB7DEB72A9722
:101B30000FB6F894DEBF0FBECDBF0E942D0B0E94E2
:101B40005D0D882309F445C080E00E94D00A182F5B
:101B500020915801082F0227E1F18091AC0181FD0D
:101B60000E94D60A80E090E0202F30E0482FB90193
:101B7000082E02C0759567950A94E2F760FF25C0AC
:101B80008E831F8281E090E07C0102C0EE0CFF1C7E
:101B90004A95E2F7812F90E08E219F2121E0892B49
:101BA00009F420E028870E94A21A8160782F9A8782
:101BB00089874E815F8168858A850E94200E809189
:101BC0005801E826E092580114C00196883091052A
:101BD00069F68FEF89838A831B820E94A21A816033
:101BE000782F9D838C8349815A816B818D810E94DE
:101BF000200E0E94431D0E94B80C90915701891736
:101C000091F00E94B80C809357012A960FB6F89471
:101C1000DEBF0FBECDBFDF91CF911F910F91FF901F
:101C2000EF900C94670D2A960FB6F894DEBF0FBEA6
:101C3000CDBFDF91CF911F910F91FF90EF9008954D
:101C4000CF93DF93CDB7DEB72B970FB6F894DEBFF7
:101C50000FBECDBF4F83588769877A878B87DE0198
:101C6000119686E0FD0111928A95E9F785E0FE0163
:101C7000379601900D928A95E1F749815A816B81DF
:101C80007C818D819E810E947D152B960FB6F894E4
:101C9000DEBF0FBECDBFDF91CF910895FC018081E3
:101CA00091810E9451180895CF93882309F424C18B
:101CB000C82F8238C1F40E94B80C81FD1DC169E3B0
:101CC00080910001909101010E94131A0E94DE1878
:101CD0002FEF81EE94E0215080409040E1F700C06A
:101CE000000069E319C0833801F50E94B80C80FD3B
:101CF00003C163E580910001909101010E94131AD4
:101D00000E94DE182FEF81EE94E021508040904039
:101D1000E1F700C0000063E58091000190910101AE
:101D20000E94151ACF910C94DE188438C1F40E94D9
:101D3000B80C82FDE1C067E480910001909101013F
:101D40000E94131A0E94DE182FEF81EE94E02150BA
:101D500080409040E1F700C0000067E4DDCF8CEFE9
:101D60008C0F813A68F48C2F0E94B0218111C4C07D
:101D70006C2F80910001909101010E94131AD2CF23
:101D800080E28C0F883048F4C77081E001C0880F72
:101D9000CA95EAF70E949318C5CF8BE58C0F833064
:101DA00078F4C53A29F0C63A31F083E890E005C0EE
:101DB00081E890E002C082E890E0CF910C941B0D86
:101DC00088E58C0F873108F08FC0C83A09F445C008
:101DD000C93A09F445C0CA3A09F445C0CB3A09F4F6
:101DE00045C0CC3A09F445C0CB3B09F445C0CC3BD7
:101DF00009F445C0CD3A09F445C0C03B09F445C0DB
:101E0000CE3A09F445C0CF3A09F445C0C13B09F4C4
:101E100045C0C23B09F445C0C33B09F445C0C43BBF
:101E200009F445C0C53B09F445C0C63B09F445C0AB
:101E3000C73B09F445C0C83B09F445C0C93B09F498
:101E400045C0CD3B09F445C0CE3B09F445C0CA3B73
:101E500009F445C080E090E044C082EE90E041C0CB
:101E600089EE90E03EC08AEE90E03BC085EB90E0CA
:101E700038C086EB90E035C083EB90E032C084EB55
:101E800090E02FC087EB90E02CC08CEC90E029C054
:101E90008DEC90E026C083E891E023C08AE891E0D1
:101EA00020C082E991E01DC084E991E01AC081E27E
:101EB00092E017C083E292E014C084E292E011C085
:101EC00085E292E00EC086E292E00BC087E292E0EB
:101ED00008C08FE690E005C080E790E002C08AE28B
:101EE00092E0CF910C94310DC03F30F08C2F0E94C6
:101EF000C91BCF910C94B61CCF910895882309F487
:101F000064C0823879F40E94B80C81FF5EC069E336
:101F100080910001909101010E94131A0E94DE1825
:101F200069E310C08338B1F40E94B80C80FF4DC043
:101F300063E580910001909101010E94131A0E94B3
:101F4000DE1863E580910001909101010E94151A4D
:101F50000C94DE18843879F40E94B80C82FF35C0E6
:101F600067E480910001909101010E94131A0E9480
:101F7000DE1867E4E7CF9CEF980F913A10F4682FD2
:101F8000E1CF90E2980F983050F4877091E001C053
:101F9000990F8A95EAF7892F0E949918D9CF9BE566
:101FA000980F933020F480E090E00C941B0D98E59E
:101FB000980F973120F480E090E00C94310D803F31
:101FC00020F00E94311C0C94B61C0895CF93C82FAA
:101FD0000E94540EC93341F42FEF87EE93E0215055
:101FE00080409040E1F707C02FEF81EE94E0215050
:101FF00080409040E1F700C000008C2FCF910C94FE
:102000007E0F882321F00E9493180C94DE18089507
:10201000882321F00E9499180C94DE1808958F925D
:102020009F92AF92BF92DF92EF92FF920F931F9316
:10203000CF93DF937C01062FC72FFC0115811295EA
:102040001F70D281D1110E94B0180E948918882374
:1020500079F0DD2369F080E2800F883048F082E07B
:102060000E9428190E94891891E0D82ED92601C013
:10207000D12CBC2EB2948FE0B8228B2D90E0FC01C5
:10208000E859FF4F0C94F52A8C2F807FCF7088235E
:1020900011F0C295C07FDD2399F0CC2309F4B9C1BA
:1020A00080E2800F883010F0011104C08C2F0E9454
:1020B000931803C08C2F0E94A3180E94DE18A9C198
:1020C000802F0E947E0FCC2309F4C8C180E2800FCC
:1020D000883010F0011104C08C2F0E94991803C0A1
:1020E0008C2F0E94A9180E94DE18B8C18C2F807F07
:1020F000CF70803211F0C295C07F002319F00130FB
:10210000C9F022C0DD2371F0112341F0113031F408
:102110000E94C3188C2B0E94CB18A0C10E94C31828
:102120008C2B30C1112319F0113009F497C10E9492
:10213000D41818C0DD2321F0163008F08FC10EC06E
:10214000153008F08BC10EC0DD2351F0112331F0A2
:10215000F701858180FF5DC18F7085838C2F12C14F
:10216000111168C18C2F14C18C2F869586958370B0
:1021700019F0813061F072C1DD2321F0802F9C2F96
:10218000937002C080E090E00E941B0D74C1DD23BB
:1021900021F0802F9C2F937002C080E090E00E947D
:1021A000310D69C1DD23F9F0053F51F0063F71F0B3
:1021B000043FA9F48091C8019091C90181600BC0CE
:1021C0008091C8019091C901826005C08091C801C9
:1021D0009091C90184609093C9018093C801802FB8
:1021E0000E94C91B1EC0053F51F0063F71F0043F1D
:1021F000A9F48091C8019091C9018E7F0BC0809194
:10220000C8019091C9018D7F05C08091C80190914E
:10221000C9018B7F9093C9018093C801802F0E94D0
:10222000311C0E94B61C27C18C2F837009F047C057
:10223000D1111DC1202F229526952770220F220F24
:10224000602F6F70862F90E0A0E0B0E04C015D0140
:10225000022E04C0880C991CAA1CBB1C0A94D2F73D
:1022600004FF10C08FE090E0A0E0B0E004C0880F51
:10227000991FAA1FBB1F2A95D2F780959095A0950C
:10228000B09503C080E090E0DC01C695C695C370B0
:10229000BC01CD01682979298A299B29C23049F0DE
:1022A00058F4C13019F00E94CE16E1C00E94BC164D
:1022B000DEC00E94E016DBC00E94BA16D8C0DD2343
:1022C00019F08C2F817001C08695882309F4CFC046
:1022D000202F229526952770220F220F602F6F70D6
:1022E000862F90E0A0E0B0E04C015D01022E04C01A
:1022F000880C991CAA1CBB1C0A94D2F704FF10C0BE
:102300008FE090E0A0E0B0E004C0880F991FAA1F02
:10231000BB1F2A95D2F780959095A095B09503C0E4
:1023200080E090E0DC01C695C695C370BC01CD018C
:10233000682979298A299B29C23049F058F4C1308B
:1023400019F00E94931793C00E94811790C00E94B9
:10235000A5178DC00E94F4168AC0802F90E0FC0162
:10236000E05EF109E531F10508F04FC0E858FF4F94
:102370000C94F52A0F708C2F8F71DD2331F00E94A1
:102380001A17802F0E94011069C00E943B17802FEE
:102390000E94081063C0DD2341F0153008F05EC0D4
:1023A0008C2F8F710E94601759C0163008F056C0EC
:1023B000F7CFDD2339F08C2F8F710E941A174EC092
:1023C000DD23C9F38C2F8F710E943B1747C0DD239B
:1023D00029F08C2F8F710E94051740C00E940017B2
:1023E0003DC0DD2349F0CF718C2F0E941A1763E0A6
:1023F0008C2F0E94131932C081E00E9428191230DC
:1024000068F182E00E94281929C0DD2331F01123F0
:1024100091F2802F0E94540E21C0112399F20933AA
:1024200049F4FFEF27EE83E0F15020408040E1F7D0
:1024300000C00000802F0E947E0F10C04C2F4F70F4
:10244000602FC7010E9450080E942B1614C04C2F09
:102450004F70602FC7010E9453080DC098E0B91655
:1024600031F0B91640F086EF8B0D823020F40E94D7
:10247000B80C0E944707DD20E1F00E94851880FD1E
:1024800018C0F70112820E947F180E941A17C70114
:102490000E9465120E947F18DF91CF911F910F91CA
:1024A000FF90EF90DF90BF90AF909F908F900C9433
:1024B0003B17DF91CF911F910F91FF90EF90DF902D
:1024C000BF90AF909F908F9008950F931F93CF93DD
:1024D000DF93EC01988189812B813C81232B31F0A2
:1024E0008F3F31F481E09F3F19F403C081E001C0C8
:1024F00080E080FD13C0CE010E945907882371F04F
:10250000688179818A810E945C188C010E94B717CA
:102510000E94A816B801CE010E940F10DF91CF9142
:102520001F910F9108950E94B0180E94C0180E9438
:10253000DE180E94DE1D0E94B61C80E090E00E9422
:102540001B0D80E090E00C94310D80910001909182
:1025500001010E94171A0C9493120E94A0180C9467
:10256000A512E92FE295EF704E2F50E0FA01329755
:10257000EE30F105B0F4E357FF4F0C94F52A803F9D
:1025800091F018F4803E68F40EC0843F51F40BC003
:10259000803E48F0813F29F406C093FB882780F9EC
:1025A000089580E0089581E008950E9451180E94E6
:1025B000B1120895CF93DF9300D000D01F92CDB712
:1025C000DEB70F900F900F900F900F90DF91CF918B
:1025D0000895CF93DF9300D000D000D0CDB7DEB701
:1025E00026960FB6F894DEBF0FBECDBFDF91CF9118
:1025F00008951F93CF93DF93C0915A0116E0809105
:102600005B01C81799F0D0E01C9FF0011D9FF00DF1
:102610001124E45AFE4F408151816281738184818B
:1026200095810E94E9122196C770E9CFDF91CF9181
:102630001F91089540918C0150918D0160918E0100
:1026400070918F0180919001909191010C94E91209
:10265000CF938091910182958F7009F05FC0809136
:102660008E01882309F45AC080915A01B0915B0110
:1026700070918C01A0918D0140918F01509190013A
:1026800091E07F3F09F090E0692FC6E08B1709F4D5
:1026900045C04115510521F0AF3F21F020E003C0B6
:1026A00021E001C0262F90E020FD35C0C89FF00139
:1026B000C99FF00D1124E45AFE4F21812A132BC02B
:1026C0002081271328C02281211125C02381348134
:1026D0002417350710F421503109241B350B283CF1
:1026E0003105C8F4209191012F7020612093910150
:1026F00026E0289FF001299FF00D1124EF59FE4F8D
:1027000080818F70806180838CE891E00E946512E7
:10271000CF910C94F91201968770B8CFCF9108959C
:10272000AF92BF92CF92DF92EF92FF920F931F93DF
:10273000CF93DF93CDB7DEB761970FB6F894DEBFC6
:102740000FBECDBF8C0185E0F801DE011D96019022
:102750000D928A95E1F7D8014C9111965C911197F1
:102760001296EC9030918C0160918D0180918F01D7
:1027700090919001009731F06F3F31F421E03F3F9D
:1027800019F403C021E001C020E0B22FB170BB2ECC
:1027900020FD60C1F801C380D480A0908E01AA20E2
:1027A00009F4EEC020919101C816D90628F0D6018F
:1027B000A81BB90BCD0104C0809590958C0D9D1D73
:1027C000FF24F394883C910580F0F12C207F09F0E0
:1027D0009CC07C2DD98AC88A6E2D89890E94DA1204
:1027E0008CE891E00E9465122DC1822F807F09F054
:1027F00054C0561314C0431312C0FE2CE1100FC076
:102800002F702061209391010E941A138CE891E0AF
:102810000E94651280919101F80185835CC1CD28E9
:1028200031F05F3F31F481E04F3F19F403C081E0A4
:1028300001C080E080FD03C081E08E2502C080E001
:1028400090E0F82FF170FF2E80FF1CC080915A019C
:1028500020915B0136E0821709F41AC190E0389F9D
:10286000F001399FF00D1124E45AFE4F6181561397
:1028700006C06081461303C06281E61203C0019660
:102880008770E9CFFE2CEE2009F425C180919101DB
:10289000816080939101F12C1EC1561309C043132E
:1028A00007C0E11005C080919101F8018583A4C0A3
:1028B0004D875E878D859E850E94D512882379F18C
:1028C000EE2069F120919101822F82958F7090E026
:1028D000029774F080918C0190918D0198878F837D
:1028E0001986DB86CA862C87CE0107960E94651260
:1028F00086E0F801ACE8B1E001900D928A95E1F72D
:102900000E9428130E941A130DC0561771F04D87AC
:102910005E878D859E850E94D51281111AC0C801DF
:102920000E946512FF24F394D6C04313F0CFE11048
:10293000EECF80919101F8018583C8010E94651254
:1029400086E0ECE8F1E0DF011D928A95E9F7FA2CC8
:10295000C2C0EE2021F320919101822F82958F70C9
:1029600090E002972CF280918C0190918D019A83D6
:1029700089831B82DD82CC822E83CE010196B6CF65
:10298000C816D90628F0F601E81BF90BCF0104C0E0
:10299000809590958C0D9D1D883C910548F0F12CFB
:1029A0007C2DD98AC88A6E2D89890E94DA124AC084
:1029B000FE2CEE2009F4B3CF561333C0431331C0BD
:1029C0002091910120FD24C0822F82958F70482F85
:1029D00050E041155105E1F0D80115962C9315975B
:1029E0004F30510549F08F5F982F9295907F822F3D
:1029F0008F70892B15968C93C8010E94651286E012
:102A0000F801ACE8B1E001900D928A95E1F73DC084
:102A100086E0F801ACE8B1E001900D928A95E1F70B
:102A20005AC04D875E878D859E850E94D512811183
:102A30005FCF80919101816080939101C8010E94D4
:102A4000651249C0ECE8F1E086E0DF011D928A954D
:102A5000E9F71BC0EE2009F462CF4D875E878D85B4
:102A60009E850E94D512F82E882309F458CF86E05F
:102A7000F801ACE8B1E001900D928A95E1F78CE89D
:102A800091E00E944E0E0E9428130E941A1323C048
:102A90004D875E878D859E850E945118292F22952E
:102AA0002F70223028F49F7039F0811105C00BC0BF
:102AB000243028F49F7049F4805E883020F0C801EB
:102AC0000E946512BF2CFB2C06C0D80115969C9164
:102AD000907F91F7F8CF8F2D61960FB6F894DEBFF7
:102AE0000FBECDBFDF91CF911F910F91FF90EF905F
:102AF000DF90CF90BF90AF9008951F93CF93DF9357
:102B0000CDB7DEB72C970FB6F894DEBF0FBECDBFA2
:102B10004F83588769877A878B879C87CE01079672
:102B20000E9490138823D1F09F8188852A853B8558
:102B3000232B31F08F3F31F481E09F3F19F403C024
:102B400081E001C080E080FD47C04F8158856985E4
:102B50007A858B859C850E94E9123EC086E0FE0145
:102B60003796DE01119601900D928A95E1F7FF816B
:102B7000E8856A857B856115710531F0EF3F31F499
:102B800081E0FF3F19F403C081E001C080E080FDD7
:102B900023C020915B0130E0C9010196877099271D
:102BA00040915A0150E084179507F1F1F983EA83C7
:102BB0007D836C8396E0929FD001939FB00D11248A
:102BC000A45ABE4FFE01319601900D929A95E1F7FD
:102BD00080935B010E94F91216E080915A01909156
:102BE0005B01891771F1189FC0011124845A9E4F0F
:102BF0000E949013882329F1E0915A011E9FF00151
:102C00001124E45AFE4F4081518162817381848195
:102C100095810E94E91280915A0190E00196877097
:102C2000992780935A01D9CF0E94AD1210925B016F
:102C300010925A01ECE8F1E086E0DF011D928A95DE
:102C4000E9F72C960FB6F894DEBF0FBECDBFDF912B
:102C5000CF911F910895EF92FF920F931F93CF93FF
:102C6000DF938C01892B09F46CC0F12CEE24E394E2
:102C7000E8012196F8018491843740F4843008F00B
:102C800051C0813081F0823019F15BC0853709F481
:102C900044C0A8F19CE7980F903708F052C08F7796
:102CA0000E947E0F41C00E5F1F4FFE01849190E293
:102CB000980F983050F48770FE2D01C0FF0F8A9551
:102CC000EAF78F2F0E94B31814C00E94540E2DC033
:102CD0000E5F1F4FFE01849190E2980F983060F4D0
:102CE0008770FE2D01C0FF0F8A95EAF78F2F0E9493
:102CF000B9180E94DE1819C00E947E0F16C00E5F20
:102D00001F4FFE01C491CC2381F08FE99FE0019712
:102D1000F1F700C00000C150F6CF0E5F1F4FFE015B
:102D2000F49003C00E94540E8E018F2D882309F465
:102D30009FCFEFE9FFE03197F1F700C0000081502D
:102D4000F5CFDF91CF911F910F91FF90EF900895F4
:102D5000089508950C94A9160C94AA160E94AC1616
:102D600060939B0170939C0180939D0190939E01C1
:102D70000C9493120C94AE160F931F9300919B0129
:102D800010919C0120919D0130919E01602B712B2F
:102D9000822B932B1F910F910C94AE160F931F93C0
:102DA00000919B0110919C0120919D0130919E0109
:102DB00060237123822393231F910F910C94AE16ED
:102DC0000F931F9300919B0110919C0120919D01F5
:102DD00030919E0160277127822793271F910F91C1
:102DE0000C94AE160C94A9160E94F21660939701EB
:102DF000709398018093990190939A010C94931287
:102E000060E070E0CB010C94F4160F931F9341E047
:102E100050E060E070E08A019B0104C0000F111FC8
:102E2000221F331F8A95D2F7C901B8011F910F9154
:102E30000C94F4160F931F9341E050E060E070E0B3
:102E400004C0440F551F661F771F8A95D2F78091E3
:102E5000970190919801A0919901B0919A018A01EE
:102E60009B01082B192B2A2B3B2BC901B8011F9161
:102E70000F910C94F4160F931F9341E050E060E023
:102E800070E004C0440F551F661F771F8A95D2F764
:102E9000409550956095709580919701909198011B
:102EA000A0919901B0919A018A019B0108231923ED
:102EB0002A233B23C901B8011F910F910C94F416EA
:102EC0000F931F9341E050E060E070E004C0440FB6
:102ED000551F661F771F8A95D2F7809197019091B1
:102EE0009801A0919901B0919A018A019B0108274C
:102EF00019272A273B27C901B8011F910F910C946C
:102F0000F4160F931F93009197011091980120914F
:102F1000990130919A01602B712B822B932B1F9179
:102F20000F910C94F4160F931F9300919701109139
:102F300098012091990130919A0160237123822395
:102F400093231F910F910C94F4160F931F930091EC
:102F50009701109198012091990130919A01602771
:102F60007127822793271F910F910C94F4160895CF
:102F700028E0929F800D1124E82FE695E695E695CE
:102F8000877051E001C0550F8A95EAF785E0E89F08
:102F9000F0011124EE56FE4F20E030E070E0408159
:102FA000CB01022E02C0969587950A94E2F78170B4
:102FB000819584278523842781932F5F3F4F253078
:102FC000310569F7089528E0929F800D1124682F3C
:102FD000669566956695982F977085E0689FB00115
:102FE000112440E050E080E0FB01E40FF51FEE56B5
:102FF000FE4F208130E0092E02C0369527950A94B5
:10300000E2F721703327042E01C0220F0A94EAF759
:10301000822B4F5F5F4F4530510531F70895BF92C6
:10302000CF92DF92EF92FF920F931F93CF93DF9394
:103030008C01C0909701D0909801E0909901F09098
:103040009A0180919B0190919C01A0919D01B0916A
:103050009E01C82AD92AEA2AFB2ACFE1D0E0D7016B
:10306000C6010C2E04C0B695A795979587950A942E
:10307000D2F780FD04C0219790F7B12C07C0BC2E79
:10308000B8018C2F0E946E080197A9F38B2DDF9158
:10309000CF911F910F91FF90EF90DF90CF90BF9055
:1030A0000895CF93DF93EC010E940F18BE010E9498
:1030B0006E08DF91CF9108951F93CF93DF93EB01BB
:1030C00090915901992321F0CB010E94511813C00E
:1030D000882349F0CB010E940F18182F682FCE01CA
:1030E0000E94B81704C0CB010E94E317182FBE013D
:1030F000812F0E946E08DF91CF911F9108958091DA
:103100009F01859585958595089580919F0187708C
:10311000089590919F01977081E009F480E00895EF
:103120008091AB0108959091AB01892B8093AB0105
:10313000089580959091AB0189238093AB01089508
:103140001092AB0108959091AA01892B8093AA0156
:10315000089580959091AA0189238093AA010895EA
:103160001092AA0108959091A901892B8093A90139
:10317000089580959091A90189238093A9010895CC
:103180001092A90108958091A001089508950C94CA
:10319000C6180C94C7189091A001981721F080933D
:1031A000A0010C94C91808958091A001882329F0EA
:1031B0001092A00180E00C94C9180895E0910001DC
:1031C000F09101018091AB018083E0910001F091C9
:1031D000010190818091AA01892B8083E0910001F7
:1031E000F091010190818091A901892B80838091C8
:1031F000A001882381F0E0910001F091010190810C
:10320000892B808380910001909101010E94E01937
:1032100081110E94D41880910001909101010C94B9
:10322000C40C0C94C61898E0899F90011124262B99
:1032300020939F010E941A1780919F018595859583
:1032400085950C94111910929F0180E00C9411192E
:1032500020919F018095822380939F01982F9770E2
:1032600079F430E0482F082E000C550B2417350751
:1032700039F08595859585950E943B170C94231907
:103280000895909345018093440108958295982F65
:10329000937344E0949F900111248C7C86958695CD
:1032A000282B822F8575880F2A7A2695822B0895E0
:1032B00080E090E00E94172B21E08D3E9E4F09F0A8
:1032C00020E0822F089582E090E00C940F2B83E0A1
:1032D00090E00C940F2B84E090E00C940F2B682F5F
:1032E00084E090E00C941D2BAB01BC018FE090E0DA
:1032F0000C942F2BAB01BC0183E190E00C942F2B9D
:1033000060E070E0CB010C947A1960E070E0CB01D2
:103310000E9474190C9480196DEE7EEF80E090E0AD
:103320000E943B2B60E082E090E00E941D2B60E059
:1033300083E090E00E941D2B10929B0110929C0153
:1033400010929D0110929E0160E084E090E00E9446
:103350001D2B60E085E090E00E941D2B60E086E080
:1033600090E00E941D2B6FEF87E090E00E941D2BE4
:1033700040E050E0BA0188E090E00E942F2B60E02E
:103380008DE090E00E941D2B40E050E0BA0188E102
:1033900090E00E942F2B60E087E190E00E941D2BBF
:1033A00040E050E0BA018CE190E00E942F2B60E0F9
:1033B00080E290E00E941D2B0C9485190C948C19CE
:1033C000FC01329697E080E0915029F02191222370
:1033D000D9F38F5FF9CF08959C01FC0132969FEFDE
:1033E00080E04191461789F09F3F19F4411101C0D7
:1033F000982F8F5F8630A9F79F3F39F0F901E90FC9
:10340000F11D97FDFA956283089508959C012A5F46
:103410003F4FFC014281461301C012820196821780
:103420009307B9F708950C94EC190C94061A0296B8
:1034300026E0FC0111922A95E9F7089508950C946D
:103440001E1A0C941E1A0E94211A0E942D0B0E9413
:103450001F1A80E00E94D00A91E0811101C090E023
:10346000892F08950C941E1A0C94321A0E94341A53
:103470008091D401843049F11092AD0120E488E1BB
:1034800090E00FB6F894A895809360000FBE20934B
:10349000600080E00E9447070E94341A83B7817F52
:1034A000846083BF83B7816083BF7894889583B736
:1034B0008E7F83BF0FB6F894A895809160008861D5
:1034C00080936000109260000FBE08950C941E1A45
:1034D0000E94AD120E94B80C0E9447070C94661A15
:1034E0001F920F920FB60F9211248F939F93AF9359
:1034F000BF938091AD01811113C08091CA01909159
:10350000CB01A091CC01B091CD014196A11DB11D7F
:103510008093CA019093CB01A093CC01B093CD01CD
:10352000BF91AF919F918F910F900FBE0F901F9001
:10353000189582E084BD93E095BD9AEF97BD809386
:103540006E0008952FB7F8948091CA019091CB0135
:10355000A091CC01B091CD012FBF08952FB7F89461
:103560006091CA017091CB018091CC019091CD0105
:103570002FBF0895CF92DF92EF92FF920F931F9388
:103580002FB7F8944091CA015091CB016091CC01C2
:103590007091CD012FBF6A017B01EE24FF248C01C5
:1035A00020E030E0C016D106E206F30610F44150E8
:1035B00051099A01281B390BC9011F910F91FF90E6
:1035C000EF90DF90CF90089578941F920F920FB6EE
:1035D0000F9211248F939F93AF93BF938091CA0151
:1035E0009091CB01A091CC01B091CD010196A11D8C
:1035F000B11D8093CA019093CB01A093CC01B093ED
:10360000CD01BF91AF919F918F910F900FBE0F9001
:103610001F90189581E08093E00080E28093D800AD
:103620001092C9008FE19EE40197F1F700C00000FD
:1036300087E090EBDC018093DD019093DE01A093A5
:10364000DF01B093E0019CE088E10FB6F894A89503
:10365000809360000FBE90936000FFCF0E945819C6
:10366000811102C00E94DE190E9463198093AC018F
:103670000E946B1990E09093CF018093CE010E943D
:103680006719682F70E080E090E00C94BA16809182
:10369000B10180FF0BC06091050185E0689FB0011A
:1036A000112475956795759567952BC081FF09C0A5
:1036B0006091050185E0689FB001112475956795BB
:1036C00020C082FF07C06091050185E0689FB001BE
:1036D000112417C09091B0019923D1F06091040199
:1036E000961788F72091050185E0289F9001112405
:1036F000929FA001939F500D112470E0CA010E9477
:10370000E12A6038710540F46115710519F406C0AD
:1037100065E070E0862F08958FE7089581E00895B1
:103720008091B10180FF08C06091030170E0759540
:1037300067957595679521C081FF06C0609103016B
:1037400070E07595679519C082FF04C06091030110
:1037500070E010C09091B001992399F0609102013E
:103760009617A0F780910301899FC001112470E092
:103770000E94E12A6038710540F46115710519F461
:1037800006C061E070E0862F08958FE7089581E01C
:103790000895803F21F40E94471B819504C0813F1A
:1037A00029F40E94471B8093B5010895823F21F4BC
:1037B0000E94471B819504C0833F29F40E94471B48
:1037C0008093B4010895893F19F40E94901B05C0AD
:1037D0008A3F31F40E94901B81958093B601089531
:1037E0008B3F21F40E94901B819504C08C3F29F4EB
:1037F0000E94901B8093B7010895843F21F480912B
:10380000B301816017C0853F21F48091B3018260CC
:1038100011C0863F21F48091B30184600BC0873FC3
:1038200021F48091B301886005C0883F31F4809114
:10383000B30180618093B30108958D3F21F480919D
:10384000B10181600BC08E3F21F48091B101826093
:1038500005C08F3F29F48091B10184608093B1014C
:103860000895803F39F48091B50187FF6CC01092B4
:10387000B50169C0813F29F48091B5011816BCF3E8
:1038800062C09091B401823F29F497FF5CC010920E
:10389000B40159C0833F19F41916CCF354C0893FC1
:1038A00041F48091B60118160CF04DC01092B6018B
:1038B0004AC08A3F29F48091B60187FF44C0F6CF01
:1038C0008B3F39F48091B70187FF3DC01092B7015B
:1038D0003AC08C3F29F48091B7011816BCF333C06D
:1038E000843F21F48091B3018E7F17C0853F21F47E
:1038F0008091B3018D7F11C0863F21F48091B30187
:103900008B7F0BC0873F21F48091B301877F05C077
:10391000883F31F48091B3018F7E8093B30113C04F
:103920008D3F21F48091B1018E7F0BC08E3F21F439
:103930008091B1018D7F05C08F3F29F48091B10145
:103940008B7F8093B1018091B40181110EC0809171
:10395000B50181110AC08091B601811106C0809124
:10396000B701811102C01092B00108958091AC019D
:1039700083FF7EC086EF91E00E944E068091B301E6
:103980001F928F9381EF91E09F938F930E94E706A0
:103990008FEE91E00E944E068091B401282F082EF0
:1039A000000C330B3F938F938CEE91E09F938F939A
:1039B0000E94E7068AEE91E00E944E068091B501D2
:1039C000282F082E000C330B3F938F9387EE91E046
:1039D0009F938F930E94E70685EE91E00E944E062A
:1039E0008091B601282F082E000C330B3F938F9344
:1039F00082EE91E09F938F930E94E70680EE91E024
:103A00000E944E068091B701282F082E000C330B20
:103A10003F938F938DED91E09F938F930E94E706E4
:103A20008AED91E00E944E068091B0011F928F9323
:103A300087ED91E09F938F930E94E70685ED91E0DB
:103A40000E944E068091B1011F928F9382ED91E00A
:103A50009F938F930E94E7068FEC91E00E944E06A1
:103A60008DB79EB74C960FB6F8949EBF0FBE8DBF14
:103A700082EB91E00E940D0D0E94A21A9093AF017B
:103A80008093AE0108951F93CF93DF938091AE0191
:103A90009091AF010E94BA1AAC019091B0019923A4
:103AA00021F02091060130E006C0209107018AE054
:103AB000289F900111244217530708F47BC080917E
:103AC000B401C091B501D091B6011091B701811137
:103AD00007C0C1116BC0D11169C0111167C06AC0A4
:103AE0009F3F19F09F5F9093B001181624F40E9435
:103AF000471B8093B4018091B40187FF05C00E94E9
:103B0000471B81958093B4011C1624F40E94471B27
:103B10008093B5018091B50187FF05C00E94471BC6
:103B200081958093B5013091B4013323E1F0209168
:103B3000B5012223C1F045EB3403C00111249923C0
:103B400019F09093B40103C081E08093B40135EB88
:103B50002303C0011124992319F09093B50103C0E8
:103B600081E08093B5011D1624F40E94901B809380
:103B7000B6018091B60187FF05C00E94901B819518
:103B80008093B601111624F40E94901B8093B70114
:103B90008091B70187FF05C00E94901B819580939B
:103BA000B701DF91CF911F910C94B61C9F3F09F094
:103BB00099CFAACFDF91CF911F910895E2EBF1E069
:103BC00086E0DF011D928A95E9F71092B00110920C
:103BD000B101089589E194E00E944E061F9281E0B0
:103BE0008F931F9285E08F938BEC93E09F938F933D
:103BF0000E94E7060F900F900F900F900F900F907C
:103C000008958330E9F128F4813061F0823009F1C0
:103C10000895853009F462C008F449C0863009F47B
:103C200074C0089580910701262F30E0280F311DC0
:103C30002F3F310524F4680F6093070103C08FEF15
:103C400080930701809107011F928F9384E093E096
:103C500072C080910601262F30E0280F311D2F3FC2
:103C6000310524F4680F6093060103C08FEF809341
:103C70000601809106011F928F9382EF92E05BC054
:103C800080910501262F30E0280F311D2F3F31058F
:103C900024F4680F6093050103C08FEF8093050142
:103CA000809105011F928F938FED92E044C0809127
:103CB0000401262F30E0280F311D2F3F310524F459
:103CC000680F6093040103C08FEF8093040180911B
:103CD00004011F928F938AEC92E02DC08091030122
:103CE000262F30E0280F311D2F3F310524F4680FB7
:103CF0006093030103C08FEF809303018091030160
:103D00001F928F9381EB92E016C080910201262FC3
:103D100030E0280F311D2F3F310524F4680F6093E8
:103D2000020103C08FEF80930201809102011F9274
:103D30008F9386E992E09F938F930E94E7060F90FE
:103D40000F900F900F900895833081F128F4813007
:103D500059F08230D1F00895853009F449C0B8F1A6
:103D6000863009F456C0089580910701681720F441
:103D7000861B8093070102C0109207018091070102
:103D80001F928F9387E892E054C0809106016817D4
:103D900020F4861B8093060102C0109206018091D8
:103DA00006011F928F9385E792E043C08091050141
:103DB000681720F4861B8093050102C0109205014C
:103DC000809105011F928F9382E692E032C080912C
:103DD0000401681720F4861B8093040102C010922E
:103DE0000401809104011F928F938DE492E021C021
:103DF00080910301681720F4861B8093030102C0A1
:103E000010920301809103011F928F9384E392E04B
:103E100010C080910201681720F4861B8093020174
:103E200002C010920201809102011F928F9389E1DA
:103E300092E09F938F930E94E7060F900F900F9050
:103E40000F900895CF93C82F1F928F938EE195E026
:103E50009F938F930E94E70681E090E0A0E0B0E09E
:103E6000BC01CD0104C0660F771F881F991FCA953A
:103E7000D2F70E94BA160F900F900F900F90CF912B
:103E80000C94AD12CF938B3109F4D1C108F067C106
:103E90008B3009F48AC108F03DC1863009F488C12D
:103EA00020F4853009F496C144C2873009F4A4C1D6
:103EB000883009F03EC282E39AE00E944E0683E811
:103EC00099E00E944E060E9467191F928F9380E826
:103ED00099E09F938F930E94E7068EE799E00E94F6
:103EE0004E060E946319C82F8BE699E00E944E0689
:103EF0001F92CF9386E699E09F938F930E94E706E7
:103F000084E699E00E944E068AE599E00E944E06FA
:103F10008C2F81701F928F9387E599E09F938F93E9
:103F20000E94E70685E599E00E944E068BE499E041
:103F30000E944E06C1FB882780F91F928F9388E468
:103F400099E09F938F930E94E70686E499E00E9490
:103F50004E068AE399E00E944E06C2FB882780F94C
:103F60001F928F9387E399E09F938F930E94E706B8
:103F700085E399E00E944E068CE299E00E944E068D
:103F8000C3FBCC27C0F91F92CF9389E299E09F939E
:103F90008F930E94E70687E299E00E944E060E94F6
:103FA0006B19C82F83E199E00E944E061F92CF93B0
:103FB0008EE099E09F938F930E94E7068CE099E052
:103FC0000E944E0683EF98E00E944E068C2F81706F
:103FD0001F928F9380EF98E09F938F930E94E70644
:103FE0008DB79EB780960FB6F8949EBF0FBE8DBF5B
:103FF0008EEE98E00E944E0687ED98E00E944E06F5
:10400000C1FB882780F91F928F9384ED98E09F93DE
:104010008F930E94E70682ED98E00E944E0680ECA6
:1040200098E00E944E06C2FB882780F91F928F936A
:104030008DEB98E09F938F930E94E7068BEB98E0BF
:104040000E944E0689EA98E00E944E06C3FB88272C
:1040500080F91F928F9386EA98E09F938F930E9436
:10406000E70684EA98E00E944E068AE998E00E94FA
:104070004E06C4FB882780F91F928F9387E998E04A
:104080009F938F930E94E70685E998E00E944E0671
:1040900083E898E00E944E06C5FB882780F91F92AE
:1040A0008F9380E898E09F938F930E94E7068EE7B6
:1040B00098E00E944E0682E698E00E944E06C6FBFB
:1040C000882780F91F928F938FE598E09F938F93B5
:1040D0000E94E7068DE598E00E944E0685E598E08F
:1040E0000E944E06C7FBCC27C0F91F92CF9382E5F2
:1040F00098E09F938F930E94E70680E598E00E94E6
:104100004E068DB79EB74C960FB6F8949EBF0FBE65
:104110008DBF49C0803109F4B4C020F48E3009F459
:104120009AC007C1863109F4C7C0893109F001C1BD
:1041300087E796E00E944E068EE596E00E944E06C6
:1041400082E296E00E944E068DEE95E00E944E06B9
:1041500087EB95E00E944E068CE895E08FC08A328E
:10416000E1F060F4873209F4E0C028F48E3108F4FD
:10417000E0C08D51DBC0893269F1DBC0833448F483
:104180008A3308F0D0C0853309F4CFC0883369F092
:10419000D0C0833409F4C9C0CCC081E29AE00E9447
:1041A0004E060E94DE19C1E0C9C08DEA96E066C0E5
:1041B0008091AC01817F8E7F8093AC0186E896E090
:1041C0000E944E068DE19AE00E944E0681E08093A7
:1041D000B901E9CF0E94AD1281E09AE00E944E063B
:1041E0009FEF23ED80E3915020408040E1F700C035
:1041F00000000E940A1BD7CF8091AC01C82FC09548
:10420000C170C0FB80F98093AC01CC2329F085EF0D
:1042100099E00E944E0692C088EE99E00E944E06F8
:104220008091AC01897F877F8093AC01BCCF909156
:10423000AC0191FBCC27C0F981E0C827892FC0FBD6
:1042400081F98093AC01CC2319F08BED99E029C062
:104250008DEC99E013C09091AC0192FBCC27C0F992
:1042600081E0C827892FC0FB82F98093AC01CC2361
:1042700019F08EEB99E015C08EEA99E00E944E0687
:1042800092CF9091AC0193FBCC27C0F981E0C82775
:10429000892FC0FB83F98093AC01CC2351F082EAD3
:1042A00099E00E944E068091AC0181608093AC0140
:1042B00045C085E999E0E2CF8EE795E00E944E0681
:1042C0000E94B80C1F928F9384E695E09F938F9382
:1042D0000E94E706809112011F928F938DE495E072
:1042E0009F938F930E94E7068091C6011F928F9340
:1042F0008AE395E09F938F930E94E7060E94AE1A8F
:104300009F938F937F936F9383E295E09F938F9317
:104310000E94E7068DB79EB742960FB6F8949EBFEF
:104320000FBE8DBF40CF895301C080E00E94221F85
:104330003ACF83E999E00E944E06C0E08C2FCF91DE
:10434000089580E008950C94A1218E518A3030F4B4
:10435000E82FF0E0E55DFE4F8081089580E008954C
:10436000CF93C82F8091B901813059F020F082306D
:1043700009F445C039C10E949018823209F036C153
:1043800004C00E949018823261F48C2F0E94A321F5
:10439000811104C08C2F0E94421F2FC081E090E049
:1043A0002CC08C2F0E94A121811126C0C431E1F0C4
:1043B00070F4CB3081F0C031D1F40E94EA1D86E167
:1043C00095E00E944E0682E08093B90115C0C93283
:1043D00059F0C83361F486E896E00E944E068AE1FF
:1043E00095E00E944E0608C01092B90101C184E117
:1043F00095E00E944E06FCC081E08170FBC0C43293
:1044000028F5CE3108F0C1C0CB30A1F1D0F4C730CF
:1044100009F0D0C08EE18093070182E3809306010A
:104420008AE08093050184E18093040188E0809311
:10443000030188E2809302018AEB93E00E944E061A
:10444000BCC0C33149F1C431C1F0B4C0CB3409F4AC
:10445000A6C028F4C93289F0C83361F0ABC0C135B9
:1044600009F49BC0C23509F496C0CE3409F0A2C04D
:104470006AE09BC00E94EA1DA0C08091B801882319
:1044800019F01092B80199C087EC93E00E944E0693
:1044900081E08093B901AEC081EA93E00E944E06AC
:1044A0008FE893E00E944E06809107011F928F9340
:1044B0008CE893E09F938F930E94E7068AE893E04D
:1044C0000E944E0688E793E00E944E068091060106
:1044D0001F928F9385E793E09F938F930E94E70647
:1044E00083E793E00E944E0684E693E00E944E0626
:1044F000809105011F928F9381E693E09F938F93A4
:104500000E94E7068FE593E00E944E068EE493E05A
:104510000E944E06809104011F928F938BE493E0DA
:104520009F938F930E94E70689E493E00E944E06D2
:1045300084E393E00E944E06809103011F928F93C3
:1045400081E393E09F938F930E94E7068FE293E0CD
:104550000E944E0688E193E00E944E06809102017F
:104560001F928F9385E193E09F938F930E94E706BC
:1045700083E193E00E944E068DB79EB748960FB632
:10458000F8949EBF0FBE8DBF18C08C2F0E94A5212E
:104590008093B80112C061E003C061E006C06AE028
:1045A0008091B8010E94011E08C08091B8010E944C
:1045B000A41E03C088EB93E013C08091B801882348
:1045C00069F01F928F9382EB93E09F938F930E94E9
:1045D000E7060F900F900F900F9004C08FEA93E0C2
:1045E0000E944E0681E006C01092B90180E002C030
:1045F00080E003CFCF9108958091C50108959FB7C2
:10460000F8941092BC019FBF9091D401943009F0AE
:1046100057C09091E9009F703091EC00232F2170DA
:1046200030FD20E8922B23E02093E9002091EB005D
:1046300020FF43C02091EE0027FF3FC02091BA0128
:10464000222321F02091E80025FF37C01092BA0103
:1046500026E03091E80035FD15C03091D4013430AA
:1046600061F53091EB0035FD28C0215021F481E047
:104670008093BA0122C0EFE9FFE03197F1F700C063
:104680000000E7CF8093F1008091E80085FD0AC02B
:104690008091E80080FFFCCF8091E8008E778093C6
:1046A000E80006C08FB7F89421E02093BC018FBFCB
:1046B0009F709093E90080E008959F709093E900C7
:1046C0008FEF08950F931F93CF93DF9300D01F9226
:1046D000CDB7DEB78C010E941B26823011F08430EA
:1046E00021F584E089831B830A8382E08093E900BB
:1046F0008FEF9091E800815095FD06C095ED9A9559
:10470000F1F700008111F5CF8091E80085FF0DC021
:1047100040E050E063E070E0CE0101960E94382650
:104720008091E8008E778093E8000F900F900F90B3
:10473000DF91CF911F910F910895CF93DF9300D018
:104740001F92CDB7DEB72091D401243031F523E09C
:104750002983805891099B838A8382E08093E900B2
:104760008FEF9091E800815095FD06C095ED9A95E8
:10477000F1F700008111F5CF8091E80085FF0DC0B1
:1047800040E050E063E070E0CE0101960E943826E0
:104790008091E8008E778093E8000F900F900F9043
:1047A000DF91CF910895CF93DF93EC010E941B26F8
:1047B000823011F08430F9F482E08093E9008FEFC9
:1047C0009091E800815095FD06C095ED9A95F1F71E
:1047D00000008111F5CF8091E80085FF0CC040E01A
:1047E00050E066E070E0CE010E9438268091E8003B
:1047F0008E778093E800DF91CF910895CF93DF9378
:10480000EC010E941B26823011F0843039F581E0E2
:104810008093E9008FEF9091E800815095FD06C0EC
:1048200095ED9A95F1F700008111F5CF8091E800A0
:1048300085FF14C040E050E068E070E0CE010E94C7
:1048400038268091E8008E778093E80088E0FE01AA
:10485000ADEBB1E001900D928A95E1F7DF91CF9138
:10486000089582E69AE00E944E068091D30181115C
:1048700009C00E94C9270E9426288091E200846016
:104880008093E20008958EE59AE00E944E06109211
:10489000D30108958AE59AE00C944E0686E59AE0E5
:1048A0000C944E0682E59AE00E944E060C94681A1B
:1048B0002091BB012F5F822F62E30E94D52A9923AA
:1048C00019F02093BB0108951092BB018091BC01A7
:1048D000882371F18091D401843041F58091E90001
:1048E0008F702091EC00922F917020FD90E8892B21
:1048F00093E09093E9009091EB0090FF14C09091A9
:10490000EE0097FF10C09091E80095FF03C0109251
:10491000F100F9CF9091E80090FF05C09091E80078
:104920009E779093E8008F708093E9001092BC010D
:10493000089542E061EC81E00E94422742E261EC8E
:1049400082E00E94422742E261EC83E00C9442271D
:104950008091D601833009F460C030F4813071F069
:10496000823009F499C008958A3009F485C08B30EB
:1049700009F46BC0893009F0A7C020C08091D5012F
:10498000813A09F0A1C08091E800877F8093E80018
:104990008091D9019091DA01892B21F468E08DEBA7
:1049A00091E003C060E080E090E070E00E94832628
:1049B0008091E8008B778093E80008958091D5017D
:1049C000813209F081C08091D9019091DA0102977A
:1049D00008F07AC08091E800877F8093E80080919A
:1049E000E80082FD05C08091D4018111F8CF6CC030
:1049F0002091F3008091F20090E0922B029729F42D
:104A00008091F1008B7F813021F48091F1008093BF
:104A1000C5018091E8008B7753C08091D501813A20
:104A200009F052C08091D9019091DA01892B09F0E7
:104A30004BC08091E800877F8093E8008091E80078
:104A400080FFFCCF8091120136C08091D501813268
:104A5000D9F58091D9019091DA01892BA9F580913E
:104A6000E800877F8093E8000E9477278091D70134
:104A7000809312010C94AD128091D501813221F501
:104A80008091E800877F8093E8000E9477278091DB
:104A9000D8018093C60108958091D501813AA1F48F
:104AA0008091E800877F8093E8008091E80080FF94
:104AB000FCCF8091C6018093F1008091E8008E7751
:104AC0008093E8000C947727089584B7877F84BF8C
:104AD0000FB6F894A895809160008861809360007B
:104AE000109260000FBE80E8809361001092610018
:104AF0000E94570D0E94C9270E9426288091E2003B
:104B000084608093E2008FEF92E20E9441197894D2
:104B10000E94BA2A0E945F0D88E091E00E94B30CC7
:104B200081E49AE00E944E068091D401853089F498
:104B30008DE39AE00E944E060E94361A8091D201BF
:104B4000882391F30E94231A882371F30E9422265E
:104B5000EBCF0E948F0DE8CF0C94AE25292F332781
:104B600023303105C9F060F42130310581F0223065
:104B7000310509F047C08BE590E02EE93AE046C0E8
:104B80002132310511F12232310561F13BC082E160
:104B900090E029EF3AE03AC099278130910561F021
:104BA00040F08230910559F0039761F5E6E6FAE0AE
:104BB00008C0EAE9FAE005C0E8E7FAE002C0ECE67E
:104BC000FAE0849190E09F0121C063307105D0F438
:104BD000660F771FFB01E25CFE4F2081318189E087
:104BE00090E014C06330710568F4FB01EE0FFF1F05
:104BF000E85CFE4F20813181FB01EB5CFE4F808140
:104C000090E004C080E090E020E030E0FA013183E1
:104C1000208308950895CF93C82F0E940A26C09339
:104C2000C701CF9108958091D401843011F081E0C3
:104C3000089582E008958091C701811102C00C940B
:104C40001326089580E189BD82E189BD09B400FE83
:104C5000FDCF8091D8008F7D8093D8008091E000B7
:104C600082608093E0008091E00081FDFCCF089598
:104C7000CF92DF92EF92FF920F931F93CF93DF9328
:104C8000EC018B017A010E949627811133C0E11457
:104C9000F10439F0F70180819181081B190BC80FCD
:104CA000D91FC12CD12C0115110519F18091E800F3
:104CB00085FD16C08091E8008E778093E800E114AE
:104CC000F10449F0F70180819181C80ED91ED1828B
:104CD000C08285E00FC00E949627882321F30AC076
:104CE00089918093F10001501109FFEFCF1ADF0A7B
:104CF000DACF80E0DF91CF911F910F91FF90EF907D
:104D0000DF90CF9008952091DB013091DC012617D0
:104D1000370748F06115710539F42091E8002E77C6
:104D20002093E80001C0B901FC0120E06115710584
:104D300079F18091D4018823F1F18530F1F18091EE
:104D4000E80083FD3CC08091E80082FD2EC0809188
:104D5000E80080FFEBCF2091F3008091F20090E01B
:104D6000922B6115710551F08830910538F421912D
:104D70002093F100615071090196F3CF21E008976B
:104D800009F020E08091E8008E778093E800CECF94
:104D90002111CFCF0AC08091D401882361F08530E2
:104DA00061F08091E80083FD0AC08091E80082FFF5
:104DB000F2CF80E0089582E0089583E0089581E0D5
:104DC00008952091DB013091DC012617370748F068
:104DD0006115710539F42091E8002E772093E800E1
:104DE00001C0B901FC0120E06115710591F18091CC
:104DF000D401882309F440C0853009F43FC0809174
:104E0000E80083FD3DC08091E80082FD2FC08091C5
:104E1000E80080FFE9CF2091F3008091F20090E05C
:104E2000922B6115710559F08830910540F4249159
:104E30002093F1003196615071090196F2CF21E083
:104E4000089709F020E08091E8008E778093E800D1
:104E5000CBCF2111CCCF0AC08091D401882361F03F
:104E6000853061F08091E80083FD0AC08091E80000
:104E700082FFF2CF80E0089582E0089583E00895F4
:104E800081E00895982F973068F59093E90098177E
:104E900039F07091EC002091ED005091F00003C0CA
:104EA000242F762F50E021FD02C09F5FECCF309180
:104EB000EB003E7F3093EB003091ED003D7F30936F
:104EC000ED003091EB0031603093EB007093EC001B
:104ED0002093ED005093F0002091EE0027FDE5CFE8
:104EE00080E008958F708093E90081E008958091BB
:104EF000D50187FF11C08091E80082FD05C0809137
:104F0000D4018111F8CF11C08091E8008B770BC0DC
:104F10008091D401882349F08091E80080FFF8CF88
:104F20008091E8008E778093E80008952091E40056
:104F30003091E50095E64091EC00842F817040FFB0
:104F400023C08091E80080FD1DC08091D40188239A
:104F500099F0853099F08091EB0085FD11C040916A
:104F6000E4005091E5002417350729F3915011F022
:104F70009A01E1CF84E0089582E0089583E00895E6
:104F800081E0089580E008954091E80042FFDDCF80
:104F900008950E9437280E943F28E0EEF0E08081CB
:104FA00081608083E8EDF0E080818F77808319BC99
:104FB000A7EDB0E08C918E7F8C9380818F7E808373
:104FC0001092D30108950F931F93CF93DF930E9404
:104FD00037280E943F28C8EDD0E088818F778883EA
:104FE00088818068888388818F7D888319BC10922E
:104FF000D4011092D0011092D2011092D10100EE92
:1050000010E0F80180818B7F8083888181608883B4
:1050100042E060E080E00E944227E1EEF0E0808123
:105020008E7F8083E2EEF0E08081816080838081EA
:1050300088608083F80180818E7F80838881806191
:105040008883DF91CF911F910F910895E8EDF0E0F3
:1050500080818F7E8083E7EDF0E0808181608083B6
:1050600084E082BF81E08093D3010C94E327E8EDD4
:10507000F0E080818E7F80831092E200089510928C
:10508000DA001092E10008951F920F920FB60F926E
:1050900011242F933F934F935F936F937F938F933D
:1050A0009F93AF93BF93EF93FF938091E10082FFB3
:1050B0000BC08091E20082FF07C08091E1008B7FEE
:1050C0008093E1000E9458248091DA0080FF1FC085
:1050D0008091D80080FF1BC08091DA008E7F809382
:1050E000DA008091D90080FF0DC080E189BD82E1A6
:1050F00089BD09B400FEFDCF81E08093D4010E94F8
:10510000312405C019BC1092D4010E94432480911F
:10511000E10080FF19C08091E20080FF15C08091FE
:10512000E2008E7F8093E2008091E20080618093B4
:10513000E2008091D80080628093D80019BC85E09D
:105140008093D4010E944E248091E10084FF30C0FE
:105150008091E20084FF2CC080E189BD82E189BD9D
:1051600009B400FEFDCF8091D8008F7D8093D800D8
:105170008091E1008F7E8093E1008091E2008F7E3C
:105180008093E2008091E20081608093E200809150
:10519000D001882311F084E007C08091E30087FDEF
:1051A00002C081E001C083E08093D4010E945224B8
:1051B0008091E10083FF29C08091E20083FF25C038
:1051C0008091E100877F8093E10082E08093D401A9
:1051D0001092D0018091E1008E7F8093E100809158
:1051E000E2008E7F8093E2008091E20080618093F4
:1051F000E20042E060E080E00E9442278091F000FF
:1052000088608093F0000E944A24FF91EF91BF9143
:10521000AF919F918F917F916F915F914F913F914E
:105220002F910F900FBE0F901F9018951F920F9205
:105230000FB60F9211242F933F934F935F936F9369
:105240007F938F939F93AF93BF93CF93DF93EF930E
:10525000FF93C091E900CF708091EC00D82FD170FE
:1052600080FDD0E81092E9008091F000877F809364
:10527000F00078940E945A291092E9008091F00081
:1052800088608093F000CD2BCF70C093E900FF9130
:10529000EF91DF91CF91BF91AF919F918F917F91CE
:1052A0006F915F914F913F912F910F900FBE0F9093
:1052B0001F9018951F93CF93DF93CDB7DEB7AA97B2
:1052C0000FB6F894DEBF0FBECDBFE5EDF1E08091E3
:1052D000F100819321E0ED3DF207C9F70E94A82477
:1052E0008091E80083FF2EC18091D5019091D60175
:1052F000492F50E04A30510508F024C1FA01E55623
:10530000FF4F0C94F52A803821F0823809F01AC139
:1053100008C08091D1019091D201992389F08260D7
:105320000FC08091D9018F70873008F00BC1809336
:10533000E9008091EB0085FB882780F91092E90055
:105340009091E800977F9093E8008093F10010928D
:10535000F100D1C0282F2D7F09F0F4C0882319F067
:10536000823061F0EFC08091D701813009F0EAC04E
:10537000933009F080E08093D2012EC08091D70154
:1053800081112AC08091D9018F702FEF280F26300C
:1053900008F0D8C08093E9002091EB0020FF1CC0EA
:1053A000933021F48091EB00806214C09091EB0067
:1053B00090619093EB0021E030E0A90102C0440F1E
:1053C000551F8A95E2F74093EA001092EA00809117
:1053D000EB0088608093EB001092E9008091E80078
:1053E000877F8093E8000E947727ACC08111AAC014
:1053F0001091D7011F778091E3008078812B8093F3
:10540000E3008091E800877F8093E8000E9477277F
:105410008091E80080FFFCCF8091E300806880935A
:10542000E300111102C082E001C083E08093D40147
:1054300089C08058823008F085C08091D701909152
:10544000D8018C3D53E0950779F583E08A838AE2A1
:1054500089834FB7F894DE01139620E03EE051E2D5
:10546000E32FF0E050935700E49120FF03C0E29552
:10547000EF703F5FEF708E2F90E0EA3010F0C7962C
:1054800001C0C0968D939D932F5F243149F74FBF84
:105490008091E800877F8093E8006AE270E0CE01A7
:1054A00001960E94832616C06091D9017091DA019D
:1054B000AE014F5F5F4F0E94AC25BC01892B09F400
:1054C00041C09091E800977F9093E80089819A818C
:1054D0000E94E1268091E8008B778093E80032C03B
:1054E000803881F58091E800877F8093E800809183
:1054F000D0018093F1008091E8008E7772CF811106
:1055000021C08091D7019091D80199270297D4F4B6
:105510008091E800877F8093E8008091D701809395
:10552000D0010E9477278091D001811106C080911F
:10553000E30087FD02C081E001C084E08093D401D4
:105540000E9499248091E80083FF0AC08091E800BE
:10555000877F8093E8008091EB0080628093EB006E
:10556000AA960FB6F894DEBF0FBECDBFDF91CF91E4
:105570001F910895CF938091D4018823A1F0C09109
:10558000E900CF709091EC00892F817090FD80E848
:10559000C82B1092E9008091E80083FD0E945A29EF
:1055A000CF70C093E900CF910895991B79E004C0B2
:1055B000991F961708F0961B881F7A95C9F7809552
:1055C000089597FB072E16F4009407D077FD09D0B5
:1055D0000E94FB2A07FC05D03EF4909581959F4FD1
:1055E0000895709561957F4F0895EE0FFF1F059008
:1055F000F491E02D0994AA1BBB1B51E107C0AA1F1F
:10560000BB1FA617B70710F0A61BB70B881F991F63
:105610005A95A9F780959095BC01CD010895F99907
:10562000FECF92BD81BDF89A992780B50895A8E173
:10563000B0E042E050E00C94432B262FF999FECFC6
:1056400092BD81BDF89A019700B4021639F01FBAD5
:1056500020BD0FB6F894FA9AF99A0FBE08950396F2
:10566000272F0E941E2B0E941D2B252F0E941E2BD0
:10567000242F0C941E2B0196272F0E941E2B0C9476
:105680001D2BDC01CB01FC01F999FECF06C0F2BD58
:10569000E1BDF89A319600B40D9241505040B8F7F0
:0656A0000895F894FFCF0D
:1056A600A1012808140A321EFC22FE23D3239D23BF
:1056B600622301946697C6F6F7313300FF010001B5
:1056C6000000FFFF0000010001FF000102030405C6
:1056D6000607080900408522B20B2D0B0B0BB00AFA
:0456E600C90AE20A01
:00000001FF
